:100000000C9434000C9451000C9451000C94510049
:100010000C9451000C9451000C9451000C94F90074
:100020000C9451000C9451000C9451000C9451000C
:100030000C9451000C9451000C9451000C945100FC
:100040000C9451000C9451000C9451000C945100EC
:100050000C9451000C9451000C9451000C945100DC
:100060000C9451000C94510011241FBECFEFD8E026
:10007000DEBFCDBF12E0A0E0B1E0E6E9F8E002C0EB
:1000800005900D92AE37B107D9F722E0AEE7B2E0A6
:1000900001C01D92A238B207E1F70E94F8020C9449
:1000A00025040C94000082E08093B00094E09093CB
:1000B000B1008093700089EF8093B30008952FB74B
:1000C000F89460917E0270917F02809180029091FD
:1000D00081022FBF0895E4E6F0E080818F7B80836A
:1000E000E0E78081826080830895E0E7F0E080812E
:1000F0008D7F8083E4E680818064808308958FB75C
:10010000F89410927E0210927F0210928002109258
:1001100081028FBF0895EFB7F89420917E0230914D
:100120007F024091800250918102DC01CB01820F5D
:10013000931FA41FB51F80937E0290937F02A0930C
:100140008002B0938102EFBF0895EF92FF920F9368
:100150001F93EFB7F89420917E0230917F02409177
:1001600080025091810279018A01E61AF70A080B90
:10017000190BC701D80180937E0290937F02A09350
:100180008002B0938102EFBF1F910F91FF90EF901B
:100190000895CF93DF93CDB7DEB728970FB6F894C5
:1001A000DEBF0FBECDBF69837A838B839C830E94A1
:1001B0005F006D837E838F8398870E945F002D810F
:1001C0003E814F815885621B730B840B950B2981EF
:1001D0003A814B815C81621773078407950768F346
:1001E00028960FB6F894DEBF0FBECDBFDF91CF913A
:1001F00008951F921FB61F9211248F939F93AF9360
:10020000BF9380917E0290917F02A0918002B09175
:1002100081020196A11DB11D80937E0290937F0201
:10022000A0938002B0938102BF91AF919F918F9173
:100230001F901FBE1F90189560FF13C05C9A61FF4E
:1002400012C05D9A62FF11C05E9A63FF10C05F9A90
:100250005B9A61E070E080E090E00E94C9005B98EA
:1002600008955C98ECCF5D98EDCF5E98EECF5F98E7
:10027000EFCFCF93DF9300D00F92CDB7DEB7898356
:100280009A836B8362956F700E941C016B818981D8
:100290009A810F900F900F90DF91CF910C941C01D9
:1002A0000E9439016AE070E080E090E00C94C9009F
:1002B00061E00E94500162E070E080E090E00C9408
:1002C000C900CF93DF93EC01529A539A549A559AEE
:1002D000569A579A5A985B9864E670E080E090E0EE
:1002E0000E94C90063E0CE010E941C0165E070E03D
:1002F00080E090E00E94C90063E0CE010E941C01F2
:1003000064E670E080E090E00E94C90063E0CE0106
:100310000E941C0164E670E080E090E00E94C90049
:1003200062E0CE010E941C0164E670E080E090E093
:100330000E94C90068E2CE010E94500164E670E0AC
:1003400080E090E00E94C9006CE0CE010E94500164
:1003500064E670E080E090E00E94C900CE010E9457
:10036000580162E070E080E090E00E94C90066E021
:10037000CE010E94500164E670E080E090E0DF91E1
:10038000CF910C94C90062E00E94500162E070E0DD
:1003900080E090E00C94C900CF93DF9300D00F92DF
:1003A000CDB7DEB789839A836B835A9A62E070E097
:1003B00080E090E00E94C9006B8189819A810E944F
:1003C000390162E070E080E090E00E94C9005A9834
:1003D00062E070E080E090E00F900F900F90DF916E
:1003E000CF910C94C900EF92FF920F931F93CF937C
:1003F000DF937C01EB010E94580100E010E068816E
:10040000611107C0DF91CF911F910F91FF90EF9085
:1004100008956D3051F06A3051F4013099F360EC79
:10042000C7010E94500101E010E02196E8CFC7010A
:100430000E94CC011F5F1031C0F3EFCFEF92FF920B
:100440000F931F93CF93DF938C017B01611571058F
:10045000C9F00E94F301CDE0D0E06AEF70E080E0E7
:1004600090E00E94C900C8010E9458016AEF70E044
:1004700080E090E00E94C900B701C8010E94F3012A
:10048000219759F7DF91CF911F910F91FF90EF9036
:1004900008954295440F440F407C6058640F0C94BB
:1004A0005001CF93DF93EC01FC0111921192CF0127
:1004B0006AE372E00E941E0467E472E0CE01829655
:1004C0000E941E0469E572E0CE018E5B9F4F0E9480
:1004D0001E046BE672E0CE018E599F4F0E941E04EF
:1004E000FE01EE57FF4F1192119210821182CA57EE
:1004F000DF4F18821982DF91CF9108958F929F92DA
:10050000AF92BF92CF92DF92EF92FF920F931F9321
:10051000CF93DF9300D000D0CDB7DEB78B839C8321
:1005200029833A83FC0161937193CF01BA010E9440
:100530001E0469817A818B819C8182960E941E04AF
:10054000B8018B819C818E5B9F4F0E941E04B70176
:100550008B819C818E599F4F0E941E04EB81FC81F0
:10056000EE57FF4FC082D182EB81FC81EC57FF4FE9
:10057000A082B1828B819C818A579F4FFC0180822F
:1005800091820F900F900F900F90DF91CF911F915C
:100590000F91FF90EF90DF90CF90BF90AF909F9022
:1005A0008F900895FC0180819181089502960895AD
:1005B0006130710511F4829608956230710519F465
:1005C0008E5B9F4F08958E599F4F0895FC016130B7
:1005D000710529F4EE57FF4F8081918108956230B3
:1005E000710519F4EC57FF4FF7CFEA57FF4FF4CFDF
:1005F000CDB7DEB7C155D5400FB6F894DEBF0FBEFC
:10060000CDBF0E94530078943E018FEA681A8AEFAA
:10061000780AC3010E946101812C912C540164016C
:1006200090EBE92E91E0F92E00E011E02BE131E0B2
:100630004BE251E068E873E1CE0187539B4F0E9483
:100640007E02C39408E311E02FE431E043E651E079
:1006500064EC79E0CE018F5B9B4F0E947E028701A4
:100660002EE631E04EE851E064E273E1CE018754BA
:100670009C4F0E947E028C2CAC2CC12C59E9E52E9B
:1006800051E0F52E01EB11E02BEC31E048EE51E0AA
:1006900066ED76E0CE018F5C9C4F0E947E02812C3D
:1006A000A12CC39470EBE72E71E0F72E05EF11E05B
:1006B00020E132E04DE252E06CE27AE1CE01875572
:1006C0009D4F0E947E0288E8FE01E753FB4FDE014A
:1006D000119601900D928A95E1F788E8FE01EF5B93
:1006E000FB4FDE01A757BF4F01900D928A95E1F7AE
:1006F00088E8FE01E754FC4FDE01AF5EBE4F01907B
:100700000D928A95E1F788E8FE01EF5CFC4FDE016F
:10071000A756BE4F01900D928A95E1F788E8FE0139
:10072000E755FD4FDE01AF5DBD4F01900D928A95FB
:10073000E1F7062DB72CE8E8AE2E81E0E82EF12C8B
:10074000F7013197E432F10508F06FC0E95DFB4F26
:100750000C94180496E0E916F10409F464C08FE0E3
:10076000E816F10409F45FC020E09AE1E916F1040B
:10077000D1F130E081E2E816F104F1F511E0912CBD
:10078000A29E6001A39ED00C1124CE010196C80E3A
:10079000D91EC6010E94D602BC01802F9B2D0E944B
:1007A000F30168E873E180E090E00E94C900612FE6
:1007B000792DC6010E94E602612F792D892B11F156
:1007C000C6010E94D802BC01802F9B2D0E941E02F0
:1007D0009FEFE91AF90AB4CF21E030E093E2E9167D
:1007E000F104CBCF23E030E0C9CF23E030E013E0C9
:1007F0008EE0E816F10419F612E0C1CF24E0F3CF41
:1008000022E0F1CFC6010E94D802BC01802F9B2DAF
:100810000E94F30160E177E280E090E00E94C9006D
:10082000D7CF21E0E0CF20E0DECF24E030E0E4CFFE
:10083000EE0FFF1F0590F491E02D0994FB01DC0100
:1008400001900D920020E1F70895F894FFCFFE0388
:1008500011040004AA031504AA03F203FE03EC0327
:1008600000041504AA03FE03F503AA0300041504FB
:100870001304FE0300041504AA03FE03EC030004A2
:10088000AA0315040004FE03AA030004F503AA0347
:060890000004EC039D03CF
:1008960033302D646179206D6F6E65796261636BAB
:1008A6002067756172616E7465650044726976656C
:1008B600206D65206372617A792100436F6F6C4306
:1008C600617273204C4C43005468657920617265EF
:1008D60020686F7420616E64206A616D6D79004DC9
:1008E600616B696E672070656F706C6520666C6FF2
:1008F6006174005069652050656F706C6500436CCB
:1009060065616E20637573746F6D657273206861BF
:1009160070707920637573746F6D657273005761BB
:1009260073686F6D616E6961004261646162696DD1
:100936002E2E2E2042616461204255524745522197
:10094600004275726765726D616E696121203220A1
:10095600666F722035392053454B00467265652017
:100966006472696E6B7320696E636C75646564206E
:10097600696E206D656E7500486F6C7920427572E0
:10098600676572730050726F2047796D626F6E6F84
:10099600202D2031342064617973206672656500EC
:1009A6004E6F206D6F726520657863757365732170
:1009B600204F6E6C79204741494E5321004772798A
:1009C6006D626F204A616D657300436F6D70616E75
:1009D60079206E616D6500416464207465787420C9
:1009E6006E756D62657220310041646420746578AD
:1009F60074206E756D6265722032004164642074E5
:0E0A0600657874206E756D6265722033000095
:00000001FF
